{
  "contractName": "Adoption",
  "abi": [
    {
      "inputs": [],
      "payable": false,
      "stateMutability": "nonpayable",
      "type": "constructor"
    },
    {
      "constant": true,
      "inputs": [
        {
          "internalType": "uint256",
          "name": "",
          "type": "uint256"
        }
      ],
      "name": "adopters",
      "outputs": [
        {
          "internalType": "address",
          "name": "",
          "type": "address"
        }
      ],
      "payable": false,
      "stateMutability": "view",
      "type": "function"
    },
    {
      "constant": true,
      "inputs": [],
      "name": "owner",
      "outputs": [
        {
          "internalType": "address",
          "name": "",
          "type": "address"
        }
      ],
      "payable": false,
      "stateMutability": "view",
      "type": "function"
    },
    {
      "constant": true,
      "inputs": [],
      "name": "getOwner",
      "outputs": [
        {
          "internalType": "address",
          "name": "",
          "type": "address"
        }
      ],
      "payable": false,
      "stateMutability": "view",
      "type": "function"
    },
    {
      "constant": true,
      "inputs": [],
      "name": "getBalance",
      "outputs": [
        {
          "internalType": "uint256",
          "name": "",
          "type": "uint256"
        }
      ],
      "payable": false,
      "stateMutability": "view",
      "type": "function"
    },
    {
      "constant": false,
      "inputs": [
        {
          "internalType": "uint256",
          "name": "petId",
          "type": "uint256"
        }
      ],
      "name": "adopt",
      "outputs": [
        {
          "internalType": "uint256",
          "name": "",
          "type": "uint256"
        }
      ],
      "payable": false,
      "stateMutability": "nonpayable",
      "type": "function"
    },
    {
      "constant": true,
      "inputs": [],
      "name": "getAdopters",
      "outputs": [
        {
          "internalType": "address[16]",
          "name": "",
          "type": "address[16]"
        }
      ],
      "payable": false,
      "stateMutability": "view",
      "type": "function"
    }
  ],
  "bytecode": "0x608060405234801561001057600080fd5b5033601060006101000a81548173ffffffffffffffffffffffffffffffffffffffff021916908373ffffffffffffffffffffffffffffffffffffffff1602179055506103e4806100616000396000f3fe608060405234801561001057600080fd5b50600436106100625760003560e01c806312065fe0146100675780633de4eb171461008557806343ae80d3146100cb5780638588b2c514610139578063893d20e81461017b5780638da5cb5b146101c5575b600080fd5b61006f61020f565b6040518082815260200191505060405180910390f35b61008d610217565b6040518082601060200280838360005b838110156100b857808201518184015260208101905061009d565b5050505090500191505060405180910390f35b6100f7600480360360208110156100e157600080fd5b8101908080359060200190929190505050610298565b604051808273ffffffffffffffffffffffffffffffffffffffff1673ffffffffffffffffffffffffffffffffffffffff16815260200191505060405180910390f35b6101656004803603602081101561014f57600080fd5b81019080803590602001909291905050506102cb565b6040518082815260200191505060405180910390f35b61018361033c565b604051808273ffffffffffffffffffffffffffffffffffffffff1673ffffffffffffffffffffffffffffffffffffffff16815260200191505060405180910390f35b6101cd610366565b604051808273ffffffffffffffffffffffffffffffffffffffff1673ffffffffffffffffffffffffffffffffffffffff16815260200191505060405180910390f35b600047905090565b61021f61038c565b600060108060200260405190810160405280929190826010801561028e576020028201915b8160009054906101000a900473ffffffffffffffffffffffffffffffffffffffff1673ffffffffffffffffffffffffffffffffffffffff1681526020019060010190808311610244575b5050505050905090565b600081601081106102a557fe5b016000915054906101000a900473ffffffffffffffffffffffffffffffffffffffff1681565b60008082101580156102de5750600f8211155b6102e757600080fd5b33600083601081106102f557fe5b0160006101000a81548173ffffffffffffffffffffffffffffffffffffffff021916908373ffffffffffffffffffffffffffffffffffffffff160217905550819050919050565b6000601060009054906101000a900473ffffffffffffffffffffffffffffffffffffffff16905090565b601060009054906101000a900473ffffffffffffffffffffffffffffffffffffffff1681565b60405180610200016040528060109060208202803883398082019150509050509056fea265627a7a72315820601ac61e2542b6b447955127ae58fb3dff7df0363bccae1690a827b32d4adf3d64736f6c63430005100032",
  "source": "// SPDX-License-Identifier: MIT\r\npragma solidity ^0.5.0;\r\n\r\ncontract Adoption {\r\n    // create address type variable name adopters\r\n    address[16] public adopters;\r\n\r\n    address public owner;\r\n    \r\n    // Defining a constructor\r\n\tconstructor() public{\r\n\t\towner=msg.sender;\r\n\t}\r\n\r\n\t// Function to get\r\n\t// address of owner\r\n\tfunction getOwner(\r\n\t) public view returns (address) {\t\r\n\t\treturn owner;\r\n\t}\r\n\r\n\t// Function to return\r\n\t// current balance of owner\r\n\tfunction getBalance(\r\n\t) public view returns(uint){\r\n\t\treturn address(this).balance;\r\n\t} \r\n\r\n    // Adopting a pet\r\n    function adopt(uint petId) public returns (uint) {\r\n        // check rule before\r\n        require(petId >= 0 && petId <= 15);\r\n\r\n        // msg.sender is address of person or smart contract that call function\r\n        adopters[petId] = msg.sender;\r\n\r\n        return petId;\r\n    }\r\n\r\n    // Retrieving the adopters\r\n    // view mean this function will not change state\r\n    // memory gives the data location for the variable\r\n    function getAdopters() public view returns (address[16] memory) {\r\n        return adopters;\r\n    }\r\n\r\n}",
  "sourcePath": "D:\\Mayur\\SAKEC Assgn\\SEM 7\\BC\\Mini-project\\truffle-bakery-shop\\contracts\\Adoption.sol",
  "compiler": {
    "name": "solc",
    "version": "0.5.16+commit.9c3226ce.Emscripten.clang"
  },
  "schemaVersion": "3.4.16",
  "updatedAt": "2023-10-13T06:17:46.738Z",
  "networkType": "ethereum",
  "devdoc": {
    "methods": {}
  },
  "userdoc": {
    "methods": {}
  }
}